:1000000010C02BC029C028C037C026C025C024C0BE
:1000100023C022C021C020C01FC01EC01DC01CC0E4
:100020001BC011241FBECFE5D2E0DEBFCDBF10E064
:10003000A0E6B0E0E2E9F5E002C005900D92A63638
:10004000B107D9F720E0A6E6B0E001C01D92AF38B5
:10005000B207E1F7BCD09BC2D3CF1F920F920FB66D
:100060000F9211248F938BB78F7B8BBF8F910F9043
:100070000FBE0F901F9018951F920F920FB60F9200
:1000800011248F93809188008F5F809388008F91D7
:100090000F900FBE0F901F901895379A87B93F9A0F
:1000A00086B1876086B90895369A3699FECF24B115
:1000B00035B1932F80E0AC01420F511DCA01089564
:1000C000BA98D39ADB98B4D080E888B960E282E02D
:1000D0006ED18AE090E053D2809389008BE090E06B
:1000E0004ED280938A008CE090E049D280938B00BE
:1000F0008DE090E044D280938C008EE090E03FD27F
:1001000080938D0080E690E0D5D189E890E0E0D141
:1001100001D18EE080B985B7877E806185BF85B7C4
:10012000806285BF08959FE090B998E191BD96E403
:1001300091BDA89510928800789407C095B79062F9
:1001400095BF889595B79F7D95BF9091880098172A
:10015000A8F3F89411BC8EE080B9089578948BB719
:1001600080648BBF85B7806285BF889585B78F7D9A
:1001700085BFF8940895CF93DF93D82FF3D0C0E0D4
:1001800020C08AE18A95F1F700C06AD18823C1F0C6
:1001900088E690E0F8D080916800811111C08091CC
:1001A00069008A3A69F4F8941BBA18BA1ABA17BAED
:1001B00095B79F7D95BFF0911800E09100000995DB
:1001C000CF5FCD13DECFA6D0DF91CF91089578DF3A
:1001D0000AEAD29ADA9A81E060DF8AE18A95F1F739
:1001E00000C018E0C0E0D0E05FDFC80FD91F115099
:1001F000D9F783E0D695C7958A95E1F716B817B871
:10020000DA98D298D0936800C093690000936A008E
:100210008091660080936B008F5F8093660088E614
:1002200090E085D09BDF8AE0A6DF89E17CDFD1CF3B
:100230005DD180E061D181E065D108958FB980E41E
:100240008EB98BE101C08DB9769BFDCF8FB108953A
:10025000CF9380E057D18FEFF1DFC82F81E052D1EB
:100260008C2FCF910895CF92DF92FF920F931F931F
:10027000CF93DF931F92CDB7DEB7F82E8B01C82E38
:10028000D92E09C0F60181916F014983D7DFF801AA
:1002900081938F0149818C2D8F19841798F30F90CA
:1002A000DF91CF911F910F91FF90DF90CF90089534
:1002B000EF92FF921F93CF93DF931F92CDB7DEB7DC
:1002C000182FE82EF92E06C0F70181917F0169836E
:1002D000B5DF69818E2D811B8617B0F30F90DF91FA
:1002E000CF911F91FF90EF900895A1E0B0E0EAE771
:1002F000F1E01DC1182F80E0698304D1812F8F7137
:1003000080629CDF6981862F99DF81E0FBD0219696
:10031000E3E029C180E0F0D068E080E0E6DF089506
:1003200060E787E0E2DF6AE080E0DFDF0895CF93F7
:10033000DF93EC0180E0E0D0F3DF80E0E3D081EEFA
:100340007DDF81E0DFD080E0DDD080EA77DF609183
:100350008E00CE01ADDF81E0D5D081E0CDD0DF9140
:10036000CF91089580E0CED082EE68DF81E0CAD0E0
:1003700060E787E0BADF80E0BFD06BE080E0B5DF08
:1003800081E0BAD00895CF93DF93EC0180E0BAD03A
:1003900081E654DF40918E00BE01CE0164DF81E032
:1003A000B1D060E487E0A1DFDF91CF910895609341
:1003B0008E00682F85E099DF60E081E196DF609133
:1003C0008E0082E192DF60E083E18FDF60E084E114
:1003D0008CDF60E085E189DF60E086E186DF66E250
:1003E00086E083DF68E080E080DF63E081E07DDF3E
:1003F00063E082E07ADF6FE484E077DF60E08CE145
:1004000074DFB0DF0895EF92FF921F93CF93DF93D5
:100410001F92CDB7DEB7182F7B0180E0498372D0E1
:10042000812F8F710BDF4981B701C7011CDF81E08C
:1004300069D00F90DF91CF911F91FF90EF900895B9
:10044000A1E0B0E0E5E2F2E073C041E0BE016F5F21
:100450007F4F87E1D8DF898181702196E2E084C0F7
:10046000F7DE86FD06C0ECDF91E0882319F090E00E
:1004700001C091E0892F0895EF92FF921F93CF93CF
:10048000DF931F92CDB7DEB7182F7B0180E0498341
:1004900039D0812F8F718062D1DE4981642FC701ED
:1004A00007DF81E02FD00F90DF91CF911F91FF9058
:1004B000EF900895CF93DF93EC0145E0BC018AE013
:1004C000DBDF45E0BE0180E1D7DFDF91CF9108950A
:1004D000CF93DF93EC0180E00FD045E0BE018BE0CD
:1004E000CBDF81E009D0DF91CF910895B99AB89A16
:1004F000D49AD59AD6980895882311F0C19A089570
:10050000C1980895882311F0C09A0895C09808955D
:100510002F923F924F925F926F927F928F929F9213
:10052000AF92BF92CF92DF92EF92FF920F931F9301
:10053000CF93DF93CDB7DEB7CA1BDB0B0FB6F894B2
:10054000DEBF0FBECDBF09942A88398848885F84F2
:100550006E847D848C849B84AA84B984C884DF8063
:10056000EE80FD800C811B81AA81B981CE0FD11D47
:100570000FB6F894DEBF0FBECDBFED010895E1992F
:10058000FECF9FBB8EBBE09A99278DB30895F89458
:02059000FFCF9B
:06059200E7E7E7E70000C7
:00000001FF
