:1000000010C02BC029C028C037C026C025C024C0BE
:1000100023C022C021C020C01FC01EC01DC01CC0E4
:100020001BC011241FBECFE5D2E0DEBFCDBF10E064
:10003000A0E6B0E0E6EFF5E002C005900D92A6362E
:10004000B107D9F720E0A6E6B0E001C01D92AF38B5
:10005000B207E1F7BCD0CDC2D3CF1F920F920FB63B
:100060000F9211248F938BB78F7B8BBF8F910F9043
:100070000FBE0F901F9018951F920F920FB60F9200
:1000800011248F93809188008F5F809388008F91D7
:100090000F900FBE0F901F901895379A87B93F9A0F
:1000A00086B1876086B90895369A3699FECF24B115
:1000B00035B1932F80E0AC01420F511DCA01089564
:1000C000BA98D39ADB98B7D080E888B960E282E02A
:1000D00091D18AE090E085D2809389008BE090E016
:1000E00080D280938A008CE090E07BD280938B005A
:1000F0008DE090E076D280938C008EE090E071D21B
:1001000080938D0080E690E0F8D189E890E003D2FA
:1001100024D18EE080B985B7877E806185BF85B7A1
:10012000806285BF08959FE090B998E191BD96E403
:1001300091BDA89510928800789407C095B79062F9
:1001400095BF889595B79F7D95BF9091880098172A
:10015000A8F3F89411BC8EE080B9089578948BB719
:1001600080648BBF85B7806285BF889585B78F7D9A
:1001700085BFF8940895CF93DF93D82F16D1C0E0B0
:1001800020C083E08A95F1F700008DD18823C1F06B
:1001900088E690E01BD180916800811111C08091A8
:1001A00069008A3A69F4F8941BBA18BA1ABA17BAED
:1001B00095B79F7D95BFF0911800E09100000995DB
:1001C000CF5FCD13DECFC9D0DF91CF91089578DF17
:1001D0000AEAD39ADB9AD29ADA9A81E05EDF83E068
:1001E0008A95F1F7000018E0C0E0D0E05DDFC80FAD
:1001F000D91F1150D9F783E0D695C7958A95E1F7B5
:1002000016B817B8DA98D298D0936800C0936900EE
:1002100000936A008091660080936B008F5F8093EB
:10022000660088E690E0A6D099DF8AE0A4DFDB983C
:1002300089E179DFCECF7DD180E081D181E085D1A8
:100240000895FF920F931F93CF93DF93082F80E0C1
:1002500082D1C7E0D0E0F12C10E098010C2E02C052
:10026000359527950A94E2F720FF02C081E001C08E
:1002700080E077D181E06FD1FF0C79D1882311F034
:1002800081E0F82A80E067D1219738F78F2DCDB72C
:10029000DEB7E5E098C1CF9380E057D18FEFD1DF93
:1002A000C82F81E052D18C2FCF910895CF92DF9249
:1002B000FF920F931F93CF93DF931F92CDB7DEB7BB
:1002C000F82E8B01C82ED92E09C0F60181916F013D
:1002D0004983B7DFF80181938F0149818C2D8F19F4
:1002E000841798F30F90DF91CF911F910F91FF909A
:1002F000DF90CF900895EF92FF921F93CF93DF93FB
:100300001F92CDB7DEB7182FE82EF92E06C0F701E1
:1003100081917F01698395DF69818E2D811B86170D
:10032000B0F30F90DF91CF911F91FF90EF90089560
:10033000A1E0B0E0EDE9F1E02CC1182F80E0698385
:1003400004D1812F8F7180627CDF6981862F79DFF4
:1003500081E0FBD02196E3E038C180E0F0D068E096
:1003600080E0E6DF089560E787E0E2DF6AE080E0B2
:10037000DFDF0895CF93DF93EC0180E0E0D0F3DF7F
:1003800080E0E3D081EE5DDF81E0DFD080E0DDD092
:1003900080EA57DF60918E00CE01ADDF81E0D5D0DD
:1003A00081E0CDD0DF91CF91089580E0CED082EE74
:1003B00048DF81E0CAD060E787E0BADF80E0BFD0E5
:1003C0006BE080E0B5DF81E0BAD00895CF93DF9392
:1003D000EC0180E0BAD081E634DF40918E00BE01AE
:1003E000CE0164DF81E0B1D060E487E0A1DFDF917E
:1003F000CF91089560938E00682F85E099DF60E0CB
:1004000081E196DF60918E0082E192DF60E083E11E
:100410008FDF60E084E18CDF60E085E189DF60E010
:1004200086E186DF66E286E083DF68E080E080DFE9
:1004300063E081E07DDF63E082E07ADF6FE484E007
:1004400077DF60E08CE174DFB0DF0895EF92FF9218
:100450001F93CF93DF931F92CDB7DEB7182F7B0189
:1004600080E0498372D0812F8F71EBDE4981B70123
:10047000C7011CDF81E069D00F90DF91CF911F9100
:10048000FF90EF900895A1E0B0E0E8E4F2E082C0D0
:1004900041E0BE016F5F7F4F87E1D8DF89818170C6
:1004A0002196E2E093C0F7DE86FD06C0ECDF91E026
:1004B000882319F090E001C091E0892F0895EF9210
:1004C000FF921F93CF93DF931F92CDB7DEB7182F04
:1004D0007B0180E0498339D0812F8F718062B1DE4A
:1004E0004981642FC70107DF81E02FD00F90DF9192
:1004F000CF911F91FF90EF900895CF93DF93EC0180
:1005000045E0BC018AE0DBDF45E0BE0180E1D7DFEA
:10051000DF91CF910895CF93DF93EC0180E00FD06E
:1005200045E0BE018BE0CBDF81E009D0DF91CF91C8
:100530000895B99AB89AD49AD59AD69808958823E6
:1005400011F0C19A0895C1980895882311F0C09AB6
:100550000895C0980895882311F0DC9A0895DC98D6
:100560000895882311F0DD9A0895DD98089589B3E0
:10057000807408952F923F924F925F926F927F9274
:100580008F929F92AF92BF92CF92DF92EF92FF92A3
:100590000F931F93CF93DF93CDB7DEB7CA1BDB0B4F
:1005A0000FB6F894DEBF0FBECDBF09942A883988F4
:1005B00048885F846E847D848C849B84AA84B984FB
:1005C000C884DF80EE80FD800C811B81AA81B98107
:1005D000CE0FD11D0FB6F894DEBF0FBECDBFED011B
:1005E0000895E199FECF9FBB8EBBE09A99278DB30A
:0605F0000895F894FFCF0E
:0605F600E7E7E7E7000063
:00000001FF
